:020000040000FA
:060000008EEF0DF012006E
:0600080004EF08F01200F5
:060018000CEF08F01200DD
:061000008EEF0DF012005E
:0610080063EF0CF0120082
:061018006CEF0CF0120069
:06102A0001003A1B00006A
:0810300079000000010000003E
:08103800D9CFE6FFE1CFD9FF9B
:10104000E6526A6A686A6B8E6B886B866B846B8209
:101050006B80698C698A698869866994698269800C
:101060006D8C6D9C6E6ADF6ADF50026E036A040E3F
:10107000025C000E035829E2DF50040DF3CFE9FFB4
:10108000F4CFEAFF000EE926040EEA22EF6ADF50F1
:10109000040DF3CFE9FFF4CFEAFF000EE926040EBA
:1010A000EA22EE52EF6ADF50040DF3CFE9FFF4CFEE
:1010B000EAFF000EE926040EEA22020EE926000EDF
:1010C000EA22EE6AED6ADF2ACFD7708870967084C4
:1010D0007082709068A602D06896FCD70001696B98
:1010E000626B636B646B6D986D6B0001796BDF6A8B
:1010F000410EDF5C10E2DF50EA6A200FE96E040E59
:10110000EA22EF6ADF50EA6A610FE96E040EEA2212
:10111000EF6ADF2AEDD7E552E552E7CFD9FF12009B
:10112000D9CFE6FFE1CFD9FFE6520001795110E1B6
:101130006D6A696A6DB602D06D86FCD70001010E3A
:10114000796F6F9E6F9C6F886F966F846F926F90B0
:10115000790508E16DBA06D0686A696A69806988AC
:10116000020E796F6850040B04E06950040B01E033
:101170005AD86DB253D06850010B16E06950010B7C
:1011800013E05ADF0001040E796F0401100E026FA4
:10119000040E036F080E016F009D009B00990087ED
:1011A000008500930091008F6850100B04E0695097
:1011B000100B01E03FD86850400B04E06950400B31
:1011C00001E0689C6850200B04E06950200B01E0AE
:1011D00035D86850020B04E06950020B01E06A6ADE
:1011E000040E0001795D01E219D069A617D0DF6A0B
:1011F000040EDF5C13E268A610D06C50400B0AE1CD
:101200006C50200B07E16C50100B04E16C50080B84
:1012100001E128D86896DF2AEBD700D0E552E552E5
:10122000E7CFD9FF12006D92699468A402D0689448
:10123000FCD71200698468986D82120070A010D0EB
:1012400004010051800B0BE00451800B08E0009D6D
:10125000009B00990087008500930091008F70909B
:10126000689A12006CB40BD0040100513C0BE842A8
:10127000E8420D0802E106D801D043D902D06CB48F
:1012800048D912000401046B00016E6B6C6B6A6B31
:101290006B6B696B03D898D814EF0AF004011051F6
:1012A000600BE842E842E842E842E842000901E017
:1012B0008AD0050E115D07E10001010E696F000182
:1012C000080E796F80D0060E115D57E1800E105D1B
:1012D00053E10001010E696F0401130509E10001EA
:1012E000980E656F190E666F120E6A6F6B6B44D0A5
:1012F000020E135D22E11251F66EF76AD890F636AF
:10130000F736560EF6261A0EF7220900F5CF65F0CD
:101310000A00F5CF66F065C067F066C068F0020E9F
:101320000001F76A6725F66E6851F7220900F5CFCC
:101330006AF00A00F5CF6BF01FD0030E135D1AE1BF
:101340001251F66EF76AD890F636F736580EF62632
:101350001A0EF7220900F5CF65F00A00F5CF66F006
:1013600065C0F6FF66C0F7FF0800F55000016A6F20
:101370006B6B02D00001696B26D0090E115D23E171
:101380000001010E696F12C46DF00401125104E1F5
:101390000001100E796F17D00001200E796F71884F
:1013A00071867184718271900401089F088D0C9F71
:1013B0000C8D400EE66E210EE66E040EE66E4FDAE0
:1013C000E552E552E5521200040110511F0B0108CD
:1013D00001E029D0060E115D26E1210E135D0DE11D
:1013E00000016D0509E1BC0E656F190E666F090EEF
:1013F0006A6F6B6B010E696F16D0220E135D0DE1E3
:1014000000016D0509E1390E656F1A0E666F1D0E3C
:101410006A6F6B6B010E696F06D0230E135D03E1DB
:101420000001010E696F12006D98000169511BE106
:10143000620501E117D00401080E016F100E026F62
:10144000040E036F009D009B0099008700850093A8
:101450000091008F049D049B0499049704850493D4
:101460000491048F4DD062514BE1040110AF2DD097
:1014700000016A510401165D00016B510401175906
:1014800004E216C46AF017C46BF0FDD80001010E27
:101490006C6F0401080E016F100E026F040E036FD3
:1014A000009D009B00990097009500930091008F8C
:1014B000180E066F040E076F048D049B04990487B1
:1014C000049504930491048F1BD00001020E6C6FED
:1014D0000401056B048D049B04990487049504930F
:1014E0000491048F080E016F180E026F040E036F33
:1014F000008D009B00990087009500930091008F5C
:101500001200020E00016C5D02E14FD801D026D915
:101510001200D9CFE6FFE1CFD9FFE6520401045112
:10152000400B01E0010EDF6E080E0001795D0AE15B
:1015300012C46EFF6E50000803E2100E796F02D0E5
:10154000040E796F00016C052AE10401180E066F84
:10155000040E076F98D8020E00016E5D0AE10401C7
:10156000049D049B04990497048504930491048FBB
:1015700015D0DF500AE10401048D049B049904870F
:10158000049504930491048F09D00401049D049BE5
:1015900004990487049504930491048F01D0DED844
:1015A000E552E552E7CFD9FF1200D9CFE6FFE1CFF0
:1015B000D9FF020EE12601C4DFFFDFCF02F00250A7
:1015C0000001635D000E645903E263C0DFFF09D0D0
:1015D000DF50026E036A0250635D636F035064590B
:1015E000646F010EDB6ADF50F36E010EDBCFF4FF98
:1015F000F350F45C16E2010EDB50EA6A180FE96E54
:10160000040EEA22EF50E66E60C0E9FF61C0EAFF17
:10161000602B000E6123E552E750EF6E010EDB2ACE
:10162000E2D7000ED8806355000E64551BE204011A
:10163000080E016F180E026F040E036F00BD09D073
:10164000008D009B00990087009500930091008F0A
:1016500008D0009D009B00990087009500930091A1
:10166000008F07D00401100E026F040E036F0001FB
:10167000626B020EE15C02E2E16AE552E16EE55264
:10168000E7CFD9FF1200D9CFE6FFE1CFD9FF040E93
:10169000E1260001080E6A5D000E6B590EE26AC079
:1016A000DEFF6BC0DDFF6E5103E1010E6E6F04D0F3
:1016B0006E0502E1020E6E6F03D0080EDE6EDD6A6B
:1016C000040104930491010EDB500413DFCF05F4F1
:1016D000000EDB5000016A5F010EDB506B5BD950DE
:1016E000020FE96EDACFEAFF180EEE6E040EED6E11
:1016F000D9CFE9FFDACFEAFFEE50ED1025E065C063
:10170000F6FF66C0F7FF0800F550E66E020EDBCF6D
:10171000E9FF030EDBCFEAFFE552E750EF6E020E62
:10172000DBCFE9FFDB2A030EDBCFEAFF01E3DB2A95
:1017300065C0F6FF66C0F7FF652B000E6623DF0667
:10174000010E01E2DB06D4D7040EE15C02E2E16A9D
:10175000E552E16EE552E7CFD9FF1200D9CFE6FF9F
:10176000E1CFD9FFE652020E00016C5D36E16D500B
:10177000100B33E004010151026E036A080E0218D7
:1017800001E103502AE100513C0BE842E8420D0818
:1017900024E10051800B21E1100E026F040E036F53
:1017A000DF6ADF50026E036A080E025C000E035807
:1017B00013E2DF50EA6A180FE96E040EEA22EF50D6
:1017C000E66EDF50EA6A100FE96E040EEA22E55277
:1017D000E750EF6EDF2AE5D719D000016C6B0401EA
:1017E000080E016F100E026F040E036F009D009B28
:1017F00000990087008500930091008F049F049D4D
:10180000049B0499049704950493049100016205D4
:1018100001E1626BE552E552E7CFD9FF120068A6FD
:10182000FED7040108BF0AD0400EE66E210EE66E18
:10183000040EE66E14D8E552E552E552120068A691
:10184000FED704010CBF0AD0400EE66E620EE66EB3
:10185000040EE66E1ED8E552E552E5521200D9CFCD
:10186000E6FFE1CFD9FF0401087D089B08990887AE
:10187000089508930891088FFC0EDBCF09F4FD0E44
:10188000DBCF0AF4FE0EDBCF0BF4E552E7CFD9FF36
:101890001200D9CFE6FFE1CFD9FF04010C7D0C9BEC
:1018A0000C990C870C950C930C910C8FFC0EDBCFD4
:1018B0000DF4FD0EDBCF0EF4FE0EDBCF0FF4E55280
:0618C000E7CFD9FF120082
:0A18C600DACFE4FFE2CFDAFFE652CA
:1018D000E552E5CFDAFF1100D8CFE4FFE0CFE4FF17
:1018E000E46EDACFE4FFE2CFDAFFE652E552E5CF6D
:1018F000DAFFE550E5CFE0FFE5CFD8FF10001CECA4
:1019000008F005D890EC08F00FD8FCD71200C1867B
:10191000C184C182C180928292849396939493925F
:101920008196819481921200200E0001795D33E14D
:101930000FEC0CF00401210502E1818204D0215159
:1019400002E1819200D0220502E1818404D022517B
:1019500002E1819400D0230502E1818604D0235165
:1019600002E1819600D080B204D00401010E626FC2
:1019700005D080A203D00401626B00D080B404D0F3
:101980000401010E636F05D080A403D00401636BD2
:0819900000D01FEC0CF0120066
:0819980012010002000000082A
:1019A000D8043F00020001020001090229000101E0
:1019B00000C03209040000020300000009211101E7
:1019C0000001221D000705810340000107050103F6
:1019D0004000010403090434034D006900630072F0
:1019E000006F00630068006900700020005400650B
:1019F00000630068006E006F006C006F0067007984
:101A000000200049006E0063002E002E0353006981
:101A1000006D0070006C0065002000480049004423
:101A20000020004400650076006900630065002026
:101A300000440065006D006F000600FF0901A10170
:101A400019012940150026FF0075089540810219EB
:0E1A50000129409102C0AA19D319D7190B1A07
:021A5E002A0E4E
:101A6000F66E100EF76E000EF86E00010900F550CC
:101A7000746F0900F550756F03E1746701D03DD0B4
:101A80000900F5506F6F0900F550706F0900F550AF
:101A9000716F09000900F550E96E0900F550EA6E12
:101AA000090009000900F550726F0900F550736FC5
:101AB00009000900F6CF76F0F7CF77F0F8CF78F08D
:101AC0006FC0F6FF70C0F7FF71C0F8FF00017253DE
:101AD00002E1735307E00900F550EE6E7207F8E279
:101AE0007307F9D776C0F6FF77C0F7FF78C0F8FF25
:0C1AF00000017407000E755BBFD71200E8
:041AFC00000EF36E77
:101B000000EE00F0080E01D81200EA6002D0EE6A82
:0C1B1000FCD7F350E9601200EE6AFCD72D
:041B1C0013EE00F0D4
:101B200023EE00F0F86A019C2FEC0DF09CEC0DF018
:081B30007FEC0CF0FBD7120062
:021B3800120099
:011B3A0000AA
:020000040030CA
:0100000024DB
:010001000EF0
:0100020039C4
:010003001EDE
:0100050001F9
:010006008178
:010008000FE8
:01000900C036
:01000A000FE6
:01000B00E014
:01000C000FE4
:01000D0040B2
:00000001FF
